{
  "contractName": "AuctionFactory",
  "abi": [
    {
      "inputs": [
        {
          "internalType": "address",
          "name": "cros_account",
          "type": "address"
        }
      ],
      "stateMutability": "nonpayable",
      "type": "constructor"
    },
    {
      "anonymous": false,
      "inputs": [
        {
          "indexed": false,
          "internalType": "address",
          "name": "auctionContract",
          "type": "address"
        },
        {
          "indexed": false,
          "internalType": "address",
          "name": "owner",
          "type": "address"
        },
        {
          "indexed": false,
          "internalType": "uint256",
          "name": "numAuctions",
          "type": "uint256"
        },
        {
          "indexed": false,
          "internalType": "address[]",
          "name": "allAuctions",
          "type": "address[]"
        }
      ],
      "name": "AuctionCreated",
      "type": "event"
    },
    {
      "inputs": [
        {
          "internalType": "address",
          "name": "cros_account",
          "type": "address"
        }
      ],
      "name": "initialize",
      "outputs": [],
      "stateMutability": "nonpayable",
      "type": "function"
    },
    {
      "inputs": [],
      "name": "allAuctions",
      "outputs": [
        {
          "internalType": "address[]",
          "name": "",
          "type": "address[]"
        }
      ],
      "stateMutability": "view",
      "type": "function"
    },
    {
      "inputs": [
        {
          "internalType": "address",
          "name": "asset",
          "type": "address"
        },
        {
          "internalType": "uint256",
          "name": "createdDate",
          "type": "uint256"
        },
        {
          "internalType": "uint256",
          "name": "startTime",
          "type": "uint256"
        },
        {
          "internalType": "uint256",
          "name": "endTime",
          "type": "uint256"
        }
      ],
      "name": "publish",
      "outputs": [
        {
          "internalType": "address",
          "name": "",
          "type": "address"
        }
      ],
      "stateMutability": "nonpayable",
      "type": "function"
    }
  ],
  "bytecode": "0x608060405234801561001057600080fd5b50604051611b56380380611b56833981810160405281019061003291906100dc565b80600360006101000a81548173ffffffffffffffffffffffffffffffffffffffff021916908373ffffffffffffffffffffffffffffffffffffffff16021790555050610109565b600080fd5b600073ffffffffffffffffffffffffffffffffffffffff82169050919050565b60006100a98261007e565b9050919050565b6100b98161009e565b81146100c457600080fd5b50565b6000815190506100d6816100b0565b92915050565b6000602082840312156100f2576100f1610079565b5b6000610100848285016100c7565b91505092915050565b611a3e806101186000396000f3fe60806040523480156200001157600080fd5b5060043610620000465760003560e01c80631bbcd4a5146200004b57806385b9bc62146200006d578063c4d66de814620000a3575b600080fd5b62000055620000c3565b604051620000649190620003fa565b60405180910390f35b6200008b60048036038101906200008591906200048f565b62000153565b6040516200009a919062000512565b60405180910390f35b620000c16004803603810190620000bb91906200052f565b620002a6565b005b606060008054806020026020016040519081016040528092919081815260200182805480156200014957602002820191906000526020600020905b8160009054906101000a900473ffffffffffffffffffffffffffffffffffffffff1673ffffffffffffffffffffffffffffffffffffffff1681526020019060010190808311620000fe575b5050505050905090565b600080858585856040516200016890620002ea565b62000177949392919062000572565b604051809103906000f08015801562000194573d6000803e3d6000fd5b5090506000819080600181540180825580915050600190039060005260206000200160009091909190916101000a81548173ffffffffffffffffffffffffffffffffffffffff021916908373ffffffffffffffffffffffffffffffffffffffff160217905550600160008773ffffffffffffffffffffffffffffffffffffffff1673ffffffffffffffffffffffffffffffffffffffff168152602001908152602001600020819080600181540180825580915050600190039060005260206000200160009091909190916101000a81548173ffffffffffffffffffffffffffffffffffffffff021916908373ffffffffffffffffffffffffffffffffffffffff16021790555080915050949350505050565b80600360006101000a81548173ffffffffffffffffffffffffffffffffffffffff021916908373ffffffffffffffffffffffffffffffffffffffff16021790555050565b61144980620005c083390190565b600081519050919050565b600082825260208201905092915050565b6000819050602082019050919050565b600073ffffffffffffffffffffffffffffffffffffffff82169050919050565b6000620003518262000324565b9050919050565b620003638162000344565b82525050565b600062000377838362000358565b60208301905092915050565b6000602082019050919050565b60006200039d82620002f8565b620003a9818562000303565b9350620003b68362000314565b8060005b83811015620003ed578151620003d1888262000369565b9750620003de8362000383565b925050600181019050620003ba565b5085935050505092915050565b6000602082019050818103600083015262000416818462000390565b905092915050565b600080fd5b6200042e8162000344565b81146200043a57600080fd5b50565b6000813590506200044e8162000423565b92915050565b6000819050919050565b620004698162000454565b81146200047557600080fd5b50565b60008135905062000489816200045e565b92915050565b60008060008060808587031215620004ac57620004ab6200041e565b5b6000620004bc878288016200043d565b9450506020620004cf8782880162000478565b9350506040620004e28782880162000478565b9250506060620004f58782880162000478565b91505092959194509250565b6200050c8162000344565b82525050565b600060208201905062000529600083018462000501565b92915050565b6000602082840312156200054857620005476200041e565b5b600062000558848285016200043d565b91505092915050565b6200056c8162000454565b82525050565b600060808201905062000589600083018762000501565b62000598602083018662000561565b620005a7604083018562000561565b620005b6606083018462000561565b9594505050505056fe60806040523480156200001157600080fd5b506040516200144938038062001449833981810160405281019062000037919062000263565b600c54600b541062000080576040517f08c379a000000000000000000000000000000000000000000000000000000000815260040162000077906200035c565b60405180910390fd5b43600b541015620000c8576040517f08c379a0000000000000000000000000000000000000000000000000000000008152600401620000bf90620003f4565b60405180910390fd5b600073ffffffffffffffffffffffffffffffffffffffff16600460009054906101000a900473ffffffffffffffffffffffffffffffffffffffff1673ffffffffffffffffffffffffffffffffffffffff1614156200012557600080fd5b336000806101000a81548173ffffffffffffffffffffffffffffffffffffffff021916908373ffffffffffffffffffffffffffffffffffffffff16021790555083600460006101000a81548173ffffffffffffffffffffffffffffffffffffffff021916908373ffffffffffffffffffffffffffffffffffffffff16021790555081600281905550806003819055505050505062000416565b600080fd5b600073ffffffffffffffffffffffffffffffffffffffff82169050919050565b6000620001f082620001c3565b9050919050565b6200020281620001e3565b81146200020e57600080fd5b50565b6000815190506200022281620001f7565b92915050565b6000819050919050565b6200023d8162000228565b81146200024957600080fd5b50565b6000815190506200025d8162000232565b92915050565b6000806000806080858703121562000280576200027f620001be565b5b6000620002908782880162000211565b9450506020620002a3878288016200024c565b9350506040620002b6878288016200024c565b9250506060620002c9878288016200024c565b91505092959194509250565b600082825260208201905092915050565b7f73746172742074696d652073686f756c6420626520677265617465722074686560008201527f6e20656e642074696d6500000000000000000000000000000000000000000000602082015250565b600062000344602a83620002d5565b91506200035182620002e6565b604082019050919050565b60006020820190508181036000830152620003778162000335565b9050919050565b7f73746172742074696d652069732067726561746572207468656e20626c6f636b60008201527f2e6e756d6e657200000000000000000000000000000000000000000000000000602082015250565b6000620003dc602783620002d5565b9150620003e9826200037e565b604082019050919050565b600060208201905081810360008301526200040f81620003cd565b9050919050565b61102380620004266000396000f3fe6080604052600436106100fe5760003560e01c806362ea82db1161009557806391f901571161006457806391f901571461031e578063b3cc167a14610349578063ce10cf8014610374578063dfbf53ae146103b1578063f5b56c56146103dc576100fe565b806362ea82db1461026057806378e979251461029d5780638da5cb5b146102c85780638fa8b790146102f3576100fe565b80633f9942ff116100d15780633f9942ff146101af57806348cd4cb1146101da5780634979440a1461020557806359d667a514610230576100fe565b8063083c6323146101035780633197cbb61461012e57806338d52e0f146101595780633ccfd60b14610184575b600080fd5b34801561010f57600080fd5b50610118610407565b6040516101259190610d33565b60405180910390f35b34801561013a57600080fd5b5061014361040d565b6040516101509190610d33565b60405180910390f35b34801561016557600080fd5b5061016e610413565b60405161017b9190610d8f565b60405180910390f35b34801561019057600080fd5b50610199610439565b6040516101a69190610dc5565b60405180910390f35b3480156101bb57600080fd5b506101c4610800565b6040516101d19190610dc5565b60405180910390f35b3480156101e657600080fd5b506101ef610813565b6040516101fc9190610d33565b60405180910390f35b34801561021157600080fd5b5061021a610819565b6040516102279190610d33565b60405180910390f35b61024a60048036038101906102459190610e3d565b610882565b6040516102579190610dc5565b60405180910390f35b34801561026c57600080fd5b5061028760048036038101906102829190610e7d565b610b7a565b6040516102949190610d33565b60405180910390f35b3480156102a957600080fd5b506102b2610b92565b6040516102bf9190610d33565b60405180910390f35b3480156102d457600080fd5b506102dd610b98565b6040516102ea9190610d8f565b60405180910390f35b3480156102ff57600080fd5b50610308610bbc565b6040516103159190610dc5565b60405180910390f35b34801561032a57600080fd5b50610333610c8e565b6040516103409190610d8f565b60405180910390f35b34801561035557600080fd5b5061035e610cb4565b60405161036b9190610d33565b60405180910390f35b34801561038057600080fd5b5061039b60048036038101906103969190610e7d565b610cba565b6040516103a89190610d33565b60405180910390f35b3480156103bd57600080fd5b506103c6610cd2565b6040516103d39190610d8f565b60405180910390f35b3480156103e857600080fd5b506103f1610cf8565b6040516103fe9190610d33565b60405180910390f35b60035481565b600c5481565b600460009054906101000a900473ffffffffffffffffffffffffffffffffffffffff1681565b6000600354431080156104595750600460149054906101000a900460ff16155b61046257600080fd5b600080600460149054906101000a900460ff16156104c457339150600760008373ffffffffffffffffffffffffffffffffffffffff1673ffffffffffffffffffffffffffffffffffffffff16815260200190815260200160002054905061071a565b60008054906101000a900473ffffffffffffffffffffffffffffffffffffffff1673ffffffffffffffffffffffffffffffffffffffff163373ffffffffffffffffffffffffffffffffffffffff16141561056257600660009054906101000a900473ffffffffffffffffffffffffffffffffffffffff16915060055490506001600860006101000a81548160ff021916908315150217905550610719565b600660009054906101000a900473ffffffffffffffffffffffffffffffffffffffff1673ffffffffffffffffffffffffffffffffffffffff163373ffffffffffffffffffffffffffffffffffffffff1614156106d257600660009054906101000a900473ffffffffffffffffffffffffffffffffffffffff169150600860009054906101000a900460ff161561065b5760076000600660009054906101000a900473ffffffffffffffffffffffffffffffffffffffff1673ffffffffffffffffffffffffffffffffffffffff1673ffffffffffffffffffffffffffffffffffffffff1681526020019081526020016000205490506106cd565b60055460076000600660009054906101000a900473ffffffffffffffffffffffffffffffffffffffff1673ffffffffffffffffffffffffffffffffffffffff1673ffffffffffffffffffffffffffffffffffffffff168152602001908152602001600020546106ca9190610ed9565b90505b610718565b339150600760008373ffffffffffffffffffffffffffffffffffffffff1673ffffffffffffffffffffffffffffffffffffffff1681526020019081526020016000205490505b5b5b600081141561072857600080fd5b80600760008473ffffffffffffffffffffffffffffffffffffffff1673ffffffffffffffffffffffffffffffffffffffff16815260200190815260200160002060008282546107779190610ed9565b925050819055503373ffffffffffffffffffffffffffffffffffffffff166108fc829081150290604051600060405180830381858888f193505050506107bc57600080fd5b7f0ec497a8ae5b1ba29c60470ef651def995fac3deebbdcc56c47a4e5f51a4c2bd3383836040516107ef93929190610f0d565b60405180910390a160019250505090565b600460149054906101000a900460ff1681565b60025481565b600060076000600660009054906101000a900473ffffffffffffffffffffffffffffffffffffffff1673ffffffffffffffffffffffffffffffffffffffff1673ffffffffffffffffffffffffffffffffffffffff16815260200190815260200160002054905090565b600060025442101561089357600080fd5b6003544211156108a257600080fd5b600460149054906101000a900460ff16156108bc57600080fd5b60008054906101000a900473ffffffffffffffffffffffffffffffffffffffff1673ffffffffffffffffffffffffffffffffffffffff163373ffffffffffffffffffffffffffffffffffffffff16141561091557600080fd5b600034141561092357600080fd5b600034600760003373ffffffffffffffffffffffffffffffffffffffff1673ffffffffffffffffffffffffffffffffffffffff168152602001908152602001600020546109709190610f44565b9050600554811161098057600080fd5b600060076000600660009054906101000a900473ffffffffffffffffffffffffffffffffffffffff1673ffffffffffffffffffffffffffffffffffffffff1673ffffffffffffffffffffffffffffffffffffffff16815260200190815260200160002054905081600760003373ffffffffffffffffffffffffffffffffffffffff1673ffffffffffffffffffffffffffffffffffffffff16815260200190815260200160002081905550808211610a5357610a4860015483610a429190610f44565b82610cfe565b600581905550610b0b565b600660009054906101000a900473ffffffffffffffffffffffffffffffffffffffff1673ffffffffffffffffffffffffffffffffffffffff163373ffffffffffffffffffffffffffffffffffffffff1614610b075733600660006101000a81548173ffffffffffffffffffffffffffffffffffffffff021916908373ffffffffffffffffffffffffffffffffffffffff160217905550610b008260015483610afb9190610f44565b610cfe565b6005819055505b8190505b7ff152f4ff5e488c55370a2d53925a55055228ebd8ec95bd0251bbb299e48786b03383600660009054906101000a900473ffffffffffffffffffffffffffffffffffffffff1684600554604051610b66959493929190610f9a565b60405180910390a160019250505092915050565b60096020528060005260406000206000915090505481565b600b5481565b60008054906101000a900473ffffffffffffffffffffffffffffffffffffffff1681565b60008060009054906101000a900473ffffffffffffffffffffffffffffffffffffffff1673ffffffffffffffffffffffffffffffffffffffff163373ffffffffffffffffffffffffffffffffffffffff1614610c1757600080fd5b600354421115610c2657600080fd5b600460149054906101000a900460ff1615610c4057600080fd5b6001600460146101000a81548160ff0219169083151502179055507f462b6ca7f632601af1295aeb320851f50e8e630a309173f23535845ea4bfb3b960405160405180910390a16001905090565b600660009054906101000a900473ffffffffffffffffffffffffffffffffffffffff1681565b60015481565b60076020528060005260406000206000915090505481565b600a60009054906101000a900473ffffffffffffffffffffffffffffffffffffffff1681565b60055481565b600081831015610d1057829050610d14565b8190505b92915050565b6000819050919050565b610d2d81610d1a565b82525050565b6000602082019050610d486000830184610d24565b92915050565b600073ffffffffffffffffffffffffffffffffffffffff82169050919050565b6000610d7982610d4e565b9050919050565b610d8981610d6e565b82525050565b6000602082019050610da46000830184610d80565b92915050565b60008115159050919050565b610dbf81610daa565b82525050565b6000602082019050610dda6000830184610db6565b92915050565b600080fd5b610dee81610d6e565b8114610df957600080fd5b50565b600081359050610e0b81610de5565b92915050565b610e1a81610d1a565b8114610e2557600080fd5b50565b600081359050610e3781610e11565b92915050565b60008060408385031215610e5457610e53610de0565b5b6000610e6285828601610dfc565b9250506020610e7385828601610e28565b9150509250929050565b600060208284031215610e9357610e92610de0565b5b6000610ea184828501610dfc565b91505092915050565b7f4e487b7100000000000000000000000000000000000000000000000000000000600052601160045260246000fd5b6000610ee482610d1a565b9150610eef83610d1a565b925082821015610f0257610f01610eaa565b5b828203905092915050565b6000606082019050610f226000830186610d80565b610f2f6020830185610d80565b610f3c6040830184610d24565b949350505050565b6000610f4f82610d1a565b9150610f5a83610d1a565b9250827fffffffffffffffffffffffffffffffffffffffffffffffffffffffffffffffff03821115610f8f57610f8e610eaa565b5b828201905092915050565b600060a082019050610faf6000830188610d80565b610fbc6020830187610d24565b610fc96040830186610d80565b610fd66060830185610d24565b610fe36080830184610d24565b969550505050505056fea2646970667358221220a4790dceba22d5161122f23ed98686a40bc78321fd059c916b3c7bd91b55884164736f6c634300080b0033a2646970667358221220b63727b4fbb1ceb6cc0ab7943b041358b03a39768831f0bc18d70bd3a3c5c06d64736f6c634300080b0033",
  "immutableReferences": {},
  "source": "// // SPDX-License-Identifier: MIT\n// pragma solidity >=0.4.22 <0.9.0;\n\n// contract AuctionRepository {\n//   constructor() public {\n//   }\n// }\n\n\npragma solidity 0.8.11;\n\nimport { Auction } from './Auction.sol';\n\ncontract AuctionFactory {\n    address[] auctions;\n    mapping(address => address[]) active_auctions; // asset_address =&gt; auctions[]\n    mapping(address => address[]) complete_auctions; // asset_address =&gt; auctions[]\n\n    event AuctionCreated(address auctionContract, address owner, uint numAuctions, address[] allAuctions);\n\n    address crosAccount;\n\n    modifier onlyCrosAccout {\n        require(msg.sender == crosAccount);\n        _;\n    }\n\n    constructor(address cros_account) public {\n            crosAccount =cros_account;\n    }\n\n    function initialize(address cros_account) public  {\n      crosAccount =cros_account;\n  }\n\n    // function createAuction(uint bidIncrement, uint startBlock, uint endBlock)  external {\n    //     Copy_NewAuction  newAuction = new Copy_NewAuction(msg.sender, bidIncrement, startBlock, endBlock);\n    //     auctions.push(newAuction);\n\n    //     AuctionCreated(newAuction, msg.sender, auctions.length, auctions);\n    // }\n\n\n    function allAuctions() external view returns (address[] memory) {\n        return auctions;\n    }\n\n    function publish(address asset, uint256 createdDate, uint256 startTime, uint256 endTime) external returns(address) {\n        Auction  newAuction = new Auction(asset, createdDate, startTime, endTime);\n        auctions.push(address(newAuction));\n        active_auctions[asset].push(address(newAuction));\n        return address(newAuction);\n    }\n\n\n}\n/*\n\n  constructor(address _asset, uint256 createdDate, uint256 _startTime, uint256 _endTime) public {\n        if (startTime >= endTime) revert(\"start time should be greater then end time\");\n        if (startTime < block.number) revert(\"start time is greater then block.numner\");\n        if (asset == address(0)) revert();\n\n        owner = msg.sender;\n        asset = _asset;\n        startBlock = _startTime;\n        endBlock = _endTime;\n\n    }\n\n- function publish(address asset, uint256 createdDate, uint256 startTime, uint256\nendTime) public returns (address auction);\n5. - function auctions(bool active, bool complete) public return (mapping(address =&gt;\naddress[]) auctions);\n6. - function auction(address auction) public return (mapping(address =&gt; address[])\nauctions);\n\n\n\n*/",
  "sourcePath": "/Users/wasim/temo/AuctionSmartContract/contracts/AuctionRepository.sol",
  "compiler": {
    "name": "solc",
    "version": "0.8.11+commit.d7f03943.Emscripten.clang"
  },
  "schemaVersion": "3.4.3",
  "updatedAt": "2022-05-26T19:43:28.403Z",
  "devdoc": {
    "kind": "dev",
    "methods": {},
    "version": 1
  },
  "userdoc": {
    "kind": "user",
    "methods": {},
    "version": 1
  }
}