{
  "contractName": "AuctionFactory",
  "abi": [
    {
      "inputs": [
        {
          "internalType": "address",
          "name": "cros_account",
          "type": "address"
        }
      ],
      "stateMutability": "nonpayable",
      "type": "constructor"
    },
    {
      "anonymous": false,
      "inputs": [
        {
          "indexed": false,
          "internalType": "address",
          "name": "auctionContract",
          "type": "address"
        },
        {
          "indexed": false,
          "internalType": "address",
          "name": "owner",
          "type": "address"
        },
        {
          "indexed": false,
          "internalType": "uint256",
          "name": "numAuctions",
          "type": "uint256"
        },
        {
          "indexed": false,
          "internalType": "address[]",
          "name": "allAuctions",
          "type": "address[]"
        }
      ],
      "name": "AuctionCreated",
      "type": "event"
    },
    {
      "inputs": [
        {
          "internalType": "address",
          "name": "cros_account",
          "type": "address"
        }
      ],
      "name": "initialize",
      "outputs": [],
      "stateMutability": "nonpayable",
      "type": "function"
    },
    {
      "inputs": [],
      "name": "allAuctions",
      "outputs": [
        {
          "internalType": "address[]",
          "name": "",
          "type": "address[]"
        }
      ],
      "stateMutability": "view",
      "type": "function"
    },
    {
      "inputs": [
        {
          "internalType": "address",
          "name": "asset",
          "type": "address"
        },
        {
          "internalType": "uint256",
          "name": "createdDate",
          "type": "uint256"
        },
        {
          "internalType": "uint256",
          "name": "startTime",
          "type": "uint256"
        },
        {
          "internalType": "uint256",
          "name": "endTime",
          "type": "uint256"
        }
      ],
      "name": "publish",
      "outputs": [
        {
          "internalType": "address",
          "name": "",
          "type": "address"
        }
      ],
      "stateMutability": "nonpayable",
      "type": "function"
    }
  ],
  "bytecode": "0x608060405234801561001057600080fd5b50604051612096380380612096833981810160405281019061003291906100dc565b80600360006101000a81548173ffffffffffffffffffffffffffffffffffffffff021916908373ffffffffffffffffffffffffffffffffffffffff16021790555050610109565b600080fd5b600073ffffffffffffffffffffffffffffffffffffffff82169050919050565b60006100a98261007e565b9050919050565b6100b98161009e565b81146100c457600080fd5b50565b6000815190506100d6816100b0565b92915050565b6000602082840312156100f2576100f1610079565b5b6000610100848285016100c7565b91505092915050565b611f7e806101186000396000f3fe60806040523480156200001157600080fd5b5060043610620000465760003560e01c80631bbcd4a5146200004b57806385b9bc62146200006d578063c4d66de814620000a3575b600080fd5b62000055620000c3565b604051620000649190620003fa565b60405180910390f35b6200008b60048036038101906200008591906200048f565b62000153565b6040516200009a919062000512565b60405180910390f35b620000c16004803603810190620000bb91906200052f565b620002a6565b005b606060008054806020026020016040519081016040528092919081815260200182805480156200014957602002820191906000526020600020905b8160009054906101000a900473ffffffffffffffffffffffffffffffffffffffff1673ffffffffffffffffffffffffffffffffffffffff1681526020019060010190808311620000fe575b5050505050905090565b600080858585856040516200016890620002ea565b62000177949392919062000572565b604051809103906000f08015801562000194573d6000803e3d6000fd5b5090506000819080600181540180825580915050600190039060005260206000200160009091909190916101000a81548173ffffffffffffffffffffffffffffffffffffffff021916908373ffffffffffffffffffffffffffffffffffffffff160217905550600160008773ffffffffffffffffffffffffffffffffffffffff1673ffffffffffffffffffffffffffffffffffffffff168152602001908152602001600020819080600181540180825580915050600190039060005260206000200160009091909190916101000a81548173ffffffffffffffffffffffffffffffffffffffff021916908373ffffffffffffffffffffffffffffffffffffffff16021790555080915050949350505050565b80600360006101000a81548173ffffffffffffffffffffffffffffffffffffffff021916908373ffffffffffffffffffffffffffffffffffffffff16021790555050565b61198980620005c083390190565b600081519050919050565b600082825260208201905092915050565b6000819050602082019050919050565b600073ffffffffffffffffffffffffffffffffffffffff82169050919050565b6000620003518262000324565b9050919050565b620003638162000344565b82525050565b600062000377838362000358565b60208301905092915050565b6000602082019050919050565b60006200039d82620002f8565b620003a9818562000303565b9350620003b68362000314565b8060005b83811015620003ed578151620003d1888262000369565b9750620003de8362000383565b925050600181019050620003ba565b5085935050505092915050565b6000602082019050818103600083015262000416818462000390565b905092915050565b600080fd5b6200042e8162000344565b81146200043a57600080fd5b50565b6000813590506200044e8162000423565b92915050565b6000819050919050565b620004698162000454565b81146200047557600080fd5b50565b60008135905062000489816200045e565b92915050565b60008060008060808587031215620004ac57620004ab6200041e565b5b6000620004bc878288016200043d565b9450506020620004cf8782880162000478565b9350506040620004e28782880162000478565b9250506060620004f58782880162000478565b91505092959194509250565b6200050c8162000344565b82525050565b600060208201905062000529600083018462000501565b92915050565b6000602082840312156200054857620005476200041e565b5b600062000558848285016200043d565b91505092915050565b6200056c8162000454565b82525050565b600060808201905062000589600083018762000501565b62000598602083018662000561565b620005a7604083018562000561565b620005b6606083018462000561565b9594505050505056fe60806040523480156200001157600080fd5b5060405162001989380380620019898339818101604052810190620000379190620002a4565b6007546006541062000080576040517f08c379a000000000000000000000000000000000000000000000000000000000815260040162000077906200039d565b60405180910390fd5b436006541015620000c8576040517f08c379a0000000000000000000000000000000000000000000000000000000008152600401620000bf9062000435565b60405180910390fd5b600073ffffffffffffffffffffffffffffffffffffffff16600160009054906101000a900473ffffffffffffffffffffffffffffffffffffffff1673ffffffffffffffffffffffffffffffffffffffff1614156200012557600080fd5b83600860006101000a81548173ffffffffffffffffffffffffffffffffffffffff021916908373ffffffffffffffffffffffffffffffffffffffff160217905550336000806101000a81548173ffffffffffffffffffffffffffffffffffffffff021916908373ffffffffffffffffffffffffffffffffffffffff16021790555083600160006101000a81548173ffffffffffffffffffffffffffffffffffffffff021916908373ffffffffffffffffffffffffffffffffffffffff16021790555081600681905550806007819055505050505062000457565b600080fd5b600073ffffffffffffffffffffffffffffffffffffffff82169050919050565b6000620002318262000204565b9050919050565b620002438162000224565b81146200024f57600080fd5b50565b600081519050620002638162000238565b92915050565b6000819050919050565b6200027e8162000269565b81146200028a57600080fd5b50565b6000815190506200029e8162000273565b92915050565b60008060008060808587031215620002c157620002c0620001ff565b5b6000620002d18782880162000252565b9450506020620002e4878288016200028d565b9350506040620002f7878288016200028d565b92505060606200030a878288016200028d565b91505092959194509250565b600082825260208201905092915050565b7f73746172742074696d652073686f756c6420626520677265617465722074686560008201527f6e20656e642074696d6500000000000000000000000000000000000000000000602082015250565b600062000385602a8362000316565b9150620003928262000327565b604082019050919050565b60006020820190508181036000830152620003b88162000376565b9050919050565b7f73746172742074696d652069732067726561746572207468656e20626c6f636b60008201527f2e6e756d6e657200000000000000000000000000000000000000000000000000602082015250565b60006200041d60278362000316565b91506200042a82620003bf565b604082019050919050565b6000602082019050818103600083015262000450816200040e565b9050919050565b61152280620004676000396000f3fe6080604052600436106100f35760003560e01c806370a082311161008a57806391f901571161005957806391f90157146102ff578063dfbf53ae1461032a578063f5b56c5614610355578063fc0c546a14610380576100f3565b806370a082311461024157806378e979251461027e5780638da5cb5b146102a95780638fa8b790146102d4576100f3565b80633ccfd60b116100c65780633ccfd60b146101835780633f9942ff146101ae5780634979440a146101d957806362ea82db14610204576100f3565b80631998aeef146100f85780632810e1d6146101165780633197cbb61461012d57806338d52e0f14610158575b600080fd5b6101006103ab565b60405161010d919061114b565b60405180910390f35b34801561012257600080fd5b5061012b610720565b005b34801561013957600080fd5b50610142610b02565b60405161014f919061117f565b60405180910390f35b34801561016457600080fd5b5061016d610b08565b60405161017a91906111db565b60405180910390f35b34801561018f57600080fd5b50610198610b2e565b6040516101a5919061114b565b60405180910390f35b3480156101ba57600080fd5b506101c3610ef5565b6040516101d0919061114b565b60405180910390f35b3480156101e557600080fd5b506101ee610f08565b6040516101fb919061117f565b60405180910390f35b34801561021057600080fd5b5061022b60048036038101906102269190611227565b610f71565b604051610238919061117f565b60405180910390f35b34801561024d57600080fd5b5061026860048036038101906102639190611227565b610f89565b604051610275919061117f565b60405180910390f35b34801561028a57600080fd5b50610293610fa1565b6040516102a0919061117f565b60405180910390f35b3480156102b557600080fd5b506102be610fa7565b6040516102cb91906111db565b60405180910390f35b3480156102e057600080fd5b506102e9610fcb565b6040516102f6919061114b565b60405180910390f35b34801561030b57600080fd5b5061031461109c565b60405161032191906111db565b60405180910390f35b34801561033657600080fd5b5061033f6110c2565b60405161034c91906111db565b60405180910390f35b34801561036157600080fd5b5061036a6110e8565b604051610377919061117f565b60405180910390f35b34801561038c57600080fd5b506103956110ee565b6040516103a291906112b3565b60405180910390f35b60006006544210156103bc57600080fd5b6007544211156103cb57600080fd5b600160149054906101000a900460ff16156103e557600080fd5b60008054906101000a900473ffffffffffffffffffffffffffffffffffffffff1673ffffffffffffffffffffffffffffffffffffffff163373ffffffffffffffffffffffffffffffffffffffff16141561043e57600080fd5b600034141561044c57600080fd5b34600460003373ffffffffffffffffffffffffffffffffffffffff1673ffffffffffffffffffffffffffffffffffffffff16815260200190815260200160002081905550600034600460003373ffffffffffffffffffffffffffffffffffffffff1673ffffffffffffffffffffffffffffffffffffffff168152602001908152602001600020546104dd91906112fd565b905034600960003373ffffffffffffffffffffffffffffffffffffffff1673ffffffffffffffffffffffffffffffffffffffff168152602001908152602001600020600082825461052e91906112fd565b92505081905550600254811161054357600080fd5b600060046000600360009054906101000a900473ffffffffffffffffffffffffffffffffffffffff1673ffffffffffffffffffffffffffffffffffffffff1673ffffffffffffffffffffffffffffffffffffffff16815260200190815260200160002054905081600460003373ffffffffffffffffffffffffffffffffffffffff1673ffffffffffffffffffffffffffffffffffffffff16815260200190815260200160002081905550808211610609576105fe8282611114565b6002819055506106b4565b600360009054906101000a900473ffffffffffffffffffffffffffffffffffffffff1673ffffffffffffffffffffffffffffffffffffffff163373ffffffffffffffffffffffffffffffffffffffff16146106b05733600360006101000a81548173ffffffffffffffffffffffffffffffffffffffff021916908373ffffffffffffffffffffffffffffffffffffffff1602179055506106a98282611114565b6002819055505b8190505b7ff152f4ff5e488c55370a2d53925a55055228ebd8ec95bd0251bbb299e48786b03383600360009054906101000a900473ffffffffffffffffffffffffffffffffffffffff168460025460405161070f959493929190611353565b60405180910390a160019250505090565b60075442101561072f57600080fd5b6000600860009054906101000a900473ffffffffffffffffffffffffffffffffffffffff1673ffffffffffffffffffffffffffffffffffffffff166370a08231306040518263ffffffff1660e01b815260040161078c91906111db565b602060405180830381865afa1580156107a9573d6000803e3d6000fd5b505050506040513d601f19601f820116820180604052508101906107cd91906113d2565b9050600073ffffffffffffffffffffffffffffffffffffffff16600360009054906101000a900473ffffffffffffffffffffffffffffffffffffffff1673ffffffffffffffffffffffffffffffffffffffff1614156108f457600860009054906101000a900473ffffffffffffffffffffffffffffffffffffffff1673ffffffffffffffffffffffffffffffffffffffff1663a9059cbb60008054906101000a900473ffffffffffffffffffffffffffffffffffffffff16836040518363ffffffff1660e01b81526004016108a39291906113ff565b6020604051808303816000875af11580156108c2573d6000803e3d6000fd5b505050506040513d601f19601f820116820180604052508101906108e69190611454565b6108ef57600080fd5b610aff565b600860009054906101000a900473ffffffffffffffffffffffffffffffffffffffff1673ffffffffffffffffffffffffffffffffffffffff1663a9059cbb600360009054906101000a900473ffffffffffffffffffffffffffffffffffffffff16836040518363ffffffff1660e01b81526004016109739291906113ff565b6020604051808303816000875af1158015610992573d6000803e3d6000fd5b505050506040513d601f19601f820116820180604052508101906109b69190611454565b6109bf57600080fd5b60096000600360009054906101000a900473ffffffffffffffffffffffffffffffffffffffff1673ffffffffffffffffffffffffffffffffffffffff1673ffffffffffffffffffffffffffffffffffffffff16815260200190815260200160002054600960008060009054906101000a900473ffffffffffffffffffffffffffffffffffffffff1673ffffffffffffffffffffffffffffffffffffffff1673ffffffffffffffffffffffffffffffffffffffff1681526020019081526020016000206000828254610a9091906112fd565b92505081905550600060096000600360009054906101000a900473ffffffffffffffffffffffffffffffffffffffff1673ffffffffffffffffffffffffffffffffffffffff1673ffffffffffffffffffffffffffffffffffffffff168152602001908152602001600020819055505b50565b60075481565b600160009054906101000a900473ffffffffffffffffffffffffffffffffffffffff1681565b600060075443108015610b4e5750600160149054906101000a900460ff16155b610b5757600080fd5b600080600160149054906101000a900460ff1615610bb957339150600460008373ffffffffffffffffffffffffffffffffffffffff1673ffffffffffffffffffffffffffffffffffffffff168152602001908152602001600020549050610e0f565b60008054906101000a900473ffffffffffffffffffffffffffffffffffffffff1673ffffffffffffffffffffffffffffffffffffffff163373ffffffffffffffffffffffffffffffffffffffff161415610c5757600360009054906101000a900473ffffffffffffffffffffffffffffffffffffffff16915060025490506001600360146101000a81548160ff021916908315150217905550610e0e565b600360009054906101000a900473ffffffffffffffffffffffffffffffffffffffff1673ffffffffffffffffffffffffffffffffffffffff163373ffffffffffffffffffffffffffffffffffffffff161415610dc757600360009054906101000a900473ffffffffffffffffffffffffffffffffffffffff169150600360149054906101000a900460ff1615610d505760046000600360009054906101000a900473ffffffffffffffffffffffffffffffffffffffff1673ffffffffffffffffffffffffffffffffffffffff1673ffffffffffffffffffffffffffffffffffffffff168152602001908152602001600020549050610dc2565b60025460046000600360009054906101000a900473ffffffffffffffffffffffffffffffffffffffff1673ffffffffffffffffffffffffffffffffffffffff1673ffffffffffffffffffffffffffffffffffffffff16815260200190815260200160002054610dbf9190611481565b90505b610e0d565b339150600460008373ffffffffffffffffffffffffffffffffffffffff1673ffffffffffffffffffffffffffffffffffffffff1681526020019081526020016000205490505b5b5b6000811415610e1d57600080fd5b80600460008473ffffffffffffffffffffffffffffffffffffffff1673ffffffffffffffffffffffffffffffffffffffff1681526020019081526020016000206000828254610e6c9190611481565b925050819055503373ffffffffffffffffffffffffffffffffffffffff166108fc829081150290604051600060405180830381858888f19350505050610eb157600080fd5b7f0ec497a8ae5b1ba29c60470ef651def995fac3deebbdcc56c47a4e5f51a4c2bd338383604051610ee4939291906114b5565b60405180910390a160019250505090565b600160149054906101000a900460ff1681565b600060046000600360009054906101000a900473ffffffffffffffffffffffffffffffffffffffff1673ffffffffffffffffffffffffffffffffffffffff1673ffffffffffffffffffffffffffffffffffffffff16815260200190815260200160002054905090565b60046020528060005260406000206000915090505481565b60096020528060005260406000206000915090505481565b60065481565b60008054906101000a900473ffffffffffffffffffffffffffffffffffffffff1681565b60008060009054906101000a900473ffffffffffffffffffffffffffffffffffffffff1673ffffffffffffffffffffffffffffffffffffffff163373ffffffffffffffffffffffffffffffffffffffff161461102657600080fd5b60075442111561103557600080fd5b600160149054906101000a900460ff161561104f57600080fd5b60018060146101000a81548160ff0219169083151502179055507f462b6ca7f632601af1295aeb320851f50e8e630a309173f23535845ea4bfb3b960405160405180910390a16001905090565b600360009054906101000a900473ffffffffffffffffffffffffffffffffffffffff1681565b600560009054906101000a900473ffffffffffffffffffffffffffffffffffffffff1681565b60025481565b600860009054906101000a900473ffffffffffffffffffffffffffffffffffffffff1681565b6000818310156111265782905061112a565b8190505b92915050565b60008115159050919050565b61114581611130565b82525050565b6000602082019050611160600083018461113c565b92915050565b6000819050919050565b61117981611166565b82525050565b60006020820190506111946000830184611170565b92915050565b600073ffffffffffffffffffffffffffffffffffffffff82169050919050565b60006111c58261119a565b9050919050565b6111d5816111ba565b82525050565b60006020820190506111f060008301846111cc565b92915050565b600080fd5b611204816111ba565b811461120f57600080fd5b50565b600081359050611221816111fb565b92915050565b60006020828403121561123d5761123c6111f6565b5b600061124b84828501611212565b91505092915050565b6000819050919050565b600061127961127461126f8461119a565b611254565b61119a565b9050919050565b600061128b8261125e565b9050919050565b600061129d82611280565b9050919050565b6112ad81611292565b82525050565b60006020820190506112c860008301846112a4565b92915050565b7f4e487b7100000000000000000000000000000000000000000000000000000000600052601160045260246000fd5b600061130882611166565b915061131383611166565b9250827fffffffffffffffffffffffffffffffffffffffffffffffffffffffffffffffff03821115611348576113476112ce565b5b828201905092915050565b600060a08201905061136860008301886111cc565b6113756020830187611170565b61138260408301866111cc565b61138f6060830185611170565b61139c6080830184611170565b9695505050505050565b6113af81611166565b81146113ba57600080fd5b50565b6000815190506113cc816113a6565b92915050565b6000602082840312156113e8576113e76111f6565b5b60006113f6848285016113bd565b91505092915050565b600060408201905061141460008301856111cc565b6114216020830184611170565b9392505050565b61143181611130565b811461143c57600080fd5b50565b60008151905061144e81611428565b92915050565b60006020828403121561146a576114696111f6565b5b60006114788482850161143f565b91505092915050565b600061148c82611166565b915061149783611166565b9250828210156114aa576114a96112ce565b5b828203905092915050565b60006060820190506114ca60008301866111cc565b6114d760208301856111cc565b6114e46040830184611170565b94935050505056fea2646970667358221220e2ef1a8d0c5189933b2ac2f72b7442ad72bde0a32369553078f2bb6bab8fd57b64736f6c634300080b0033a2646970667358221220ca56fc200ed5d820c1eada4fe231168e22109c6d0dd48ee2ccf9b1695b680b3064736f6c634300080b0033",
  "immutableReferences": {},
  "source": "\npragma solidity 0.8.11;\n\nimport { Auction } from './Auction.sol';\n\nimport \"./ERC20.sol\";\n\ncontract AuctionFactory {\n    address[] auctions;\n    mapping(address => address[]) active_auctions; // asset_address =&gt; auctions[]\n    mapping(address => address[]) complete_auctions; // asset_address =&gt; auctions[]\n\n    event AuctionCreated(address auctionContract, address owner, uint numAuctions, address[] allAuctions);\n\n    address crosAccount;\n\n    modifier onlyCrosAccout {\n        require(msg.sender == crosAccount);\n        _;\n    }\n\n    constructor(address cros_account) public {\n            crosAccount =cros_account;\n    }\n\n    function initialize(address cros_account) public  {\n      crosAccount =cros_account;\n  }\n\n\n\n\n    function allAuctions() external view returns (address[] memory) {\n        return auctions;\n    }\n\n    function publish(address asset, uint256 createdDate, uint256 startTime, uint256 endTime) external returns(address) {\n        Auction  newAuction = new Auction(asset, createdDate, startTime, endTime);\n        auctions.push(address(newAuction));\n        active_auctions[asset].push(address(newAuction));\n        return address(newAuction);\n    }\n\n\n}\n\n\n",
  "sourcePath": "/Users/wasim/temo/AuctionSmartContract/contracts/AuctionRepository.sol",
  "compiler": {
    "name": "solc",
    "version": "0.8.11+commit.d7f03943.Emscripten.clang"
  },
  "schemaVersion": "3.4.3",
  "updatedAt": "2022-05-26T20:43:29.185Z",
  "devdoc": {
    "kind": "dev",
    "methods": {},
    "version": 1
  },
  "userdoc": {
    "kind": "user",
    "methods": {},
    "version": 1
  }
}